201809010060000400000000000000004076000000000000000040769600000000000016949258VICENTE GALVAN                000000000119993000000000000000000000000000000000000000000000000000000000000000000000000000000000000000000000000000000000PES00010000001000000000000000020180901
201809010060000400000000000000004077000000000000000040779600000000000041133032CATEBIEL                      000000000023999000000000000000000000000000000000000000000000000000000000000000000000000000000000000000000000000000000000PES00010000001000000000000000020180901
201809010060000400000000000000004078000000000000000040789600000000000014526004CHAPUR FELIX                  000000000101995000000000000000000000000000000000000000000000000000000000000000000000000000000000000000000000000000000000PES00010000001000000000000000020180901
201809010060000400000000000000004079000000000000000040799600000000000032244533ESTEBAN DIAZ                  000000000098494000000000000000000000000000000000000000000000000000000000000000000000000000000000000000000000000000000000PES00010000001000000000000000020180901
201809010060000400000000000000004080000000000000000040809600000000000030611267LUIS JUNKA                    000000000289984000000000000000000000000000000000000000000000000000000000000000000000000000000000000000000000000000000000PES00010000001000000000000000020180901
201809010060000400000000000000004081000000000000000040819600000000000041852212KOUTODJIAN FACUNDO            000000000039998000000000000000000000000000000000000000000000000000000000000000000000000000000000000000000000000000000000PES00010000001000000000000000020180901
201809010060000400000000000000004082000000000000000040829600000000000041133032CATEBIEL AGUSTIN              000000000279984000000000000000000000000000000000000000000000000000000000000000000000000000000000000000000000000000000000PES00010000001000000000000000020180901
201809010060000400000000000000004083000000000000000040839600000000000026192763JORGE FLORES                  000000000042498000000000000000000000000000000000000000000000000000000000000000000000000000000000000000000000000000000000PES00010000001000000000000000020180901
201809030030000300000000000000000333000000000000000003338000000000027108602541VITALE TERESA ALICIA          000000000209372000000000000000000000000000000000000000000000000000000000000000000000000000000000000000000000000000000000PES00010000001000000000000000020180903
201809030010000400000000000000000337000000000000000003378000000000020235089093SOBICO ROLANDO OSVALDO        000000000766957000000000000000000000000000000000000000000000000000000000000000000000000000000000000000000000000000000000PES00010000001000000000000000020180903
201809030080000300000000000000000200000000000000000002008000000000020345433083SEGOVIA ROBERTO MIGUEL        000000000128884000000000000000000000000000000000000000000000000000000000000000000000000000000000000000000000000000000000PES00010000001000000000000000020180903
201809030060000400000000000000004084000000000000000040849600000000000000000001CONSUMIDOR FINAL              000000000045997000000000000000000000000000000000000000000000000000000000000000000000000000000000000000000000000000000000PES00010000001000000000000000020180903
201809030060000400000000000000004085000000000000000040859600000000000000000001CONSUMIDOR FINAL              000000000041998000000000000000000000000000000000000000000000000000000000000000000000000000000000000000000000000000000000PES00010000001000000000000000020180903
201809030060000400000000000000004086000000000000000040869600000000000035426998AROVI JONATAN                 000000000145991000000000000000000000000000000000000000000000000000000000000000000000000000000000000000000000000000000000PES00010000001000000000000000020180903
201809030060000400000000000000004087000000000000000040879600000000000016399597PEREZ NESTOR                  000000000077995000000000000000000000000000000000000000000000000000000000000000000000000000000000000000000000000000000000PES00010000001000000000000000020180903
201809030060000400000000000000004088000000000000000040889600000000000037941055EZEQUIEL GUTIERREZ            000000000046998000000000000000000000000000000000000000000000000000000000000000000000000000000000000000000000000000000000PES00010000001000000000000000020180903
201809040060000400000000000000004089000000000000000040899600000000000024930849ACEVEDO HECTOR FABIAN         000000000070496000000000000000000000000000000000000000000000000000000000000000000000000000000000000000000000000000000000PES00010000001000000000000000020180904
201809040060000300000000000000001374000000000000000013748000000000030667606566TIZZANO REPUESTOS SOCIEDAD DE 000000000524371000000000000000000000000000000000000000000000000000000000000000000000000000000000000000000000000000000000PES00010000001000000000000000020181014
201809040060000300000000000000001375000000000000000013758000000000020115149815MARTENE MARTIN JOSE           000000000369697000000000000000000000000000000000000000000000000000000000000000000000000000000000000000000000000000000000PES00010000001000000000000000020181014
201809040060000300000000000000001376000000000000000013768000000000020233869490ALZA GUILLERMO RAMON          000000000804916000000000000000000000000000000000000000000000000000000000000000000000000000000000000000000000000000000000PES00010000001000000000000000020181014
201809040010000400000000000000000338000000000000000003388000000000023144296869LOPEZ GUSTAVO ADRIAN          000000000033999000000000000000000000000000000000000000000000000000000000000000000000000000000000000000000000000000000000PES00010000001000000000000000020180904
201809040010000300000000000000003136000000000000000031368000000000027108602541VITALE TERESA ALICIA          000000000504025000000000000000000000000000000000000000000000000000000000000000000000000000000000000000000000000000000000PES00010000001000000000000000020181014
201809040010000300000000000000003137000000000000000031378000000000027057539866OBIATA RAQUEL                 000000000047677000000000000000000000000000000000000000000000000000000000000000000000000000000000000000000000000000000000PES00010000001000000000000000020181014
201809040010000300000000000000003138000000000000000031388000000000030707381902COMERCIAL ZBORON S.R.L.       000000000149888000000000000000000000000000000000000000000000000000000000000000000000000000000000000000000000000000000000PES00010000001000000000000000020181014
201809040010000300000000000000003139000000000000000031398000000000027348286604GAMARRO SOFIA VICTORIA        000000000213346000000000000000000000000000000000000000000000000000000000000000000000000000000000000000000000000000000000PES00010000001000000000000000020181014
201809040010000300000000000000003140000000000000000031408000000000020182218600CIRUELOS GARCIA SERGIO ANTONIO000000000268572000000000000000000000000000000000000000000000000000000000000000000000000000000000000000000000000000000000PES00010000001000000000000000020181004
201809040060000300000000000000001377000000000000000013778000000000020166120315MIGUEL JAQUEMAIN              000000000210083000000000000000000000000000000000000000000000000000000000000000000000000000000000000000000000000000000000PES00010000001000000000000000020181014
201809040080000300000000000000000201000000000000000002018000000000020166120315MIGUEL JAQUEMAIN              000000000210083000000000000000000000000000000000000000000000000000000000000000000000000000000000000000000000000000000000PES00010000001000000000000000020180904
201809040010000300000000000000003141000000000000000031418000000000020106468282BENITTI LUIS VICTOR           000000000256722000000000000000000000000000000000000000000000000000000000000000000000000000000000000000000000000000000000PES00010000001000000000000000020181014
201809040060000400000000000000004090000000000000000040909600000000000022496896WALTER MEZA                   000000000343981000000000000000000000000000000000000000000000000000000000000000000000000000000000000000000000000000000000PES00010000001000000000000000020180904
201809040060000400000000000000004091000000000000000040919600000000000034261255MAXIMILIANO CHAVEZ            000000000299983000000000000000000000000000000000000000000000000000000000000000000000000000000000000000000000000000000000PES00010000001000000000000000020180904
201809040060000400000000000000004092000000000000000040929600000000000034487671MAIDANA LUIS                  000000000574968000000000000000000000000000000000000000000000000000000000000000000000000000000000000000000000000000000000PES00010000001000000000000000020180904
201809040060000400000000000000004093000000000000000040939600000000000031040685ADRIAN  LUNA                  000000000027998000000000000000000000000000000000000000000000000000000000000000000000000000000000000000000000000000000000PES00010000001000000000000000020180904
201809050060000400000000000000004094000000000000000040949600000000000008586935GARCIA SILVERIO VICTOR        000000000129993000000000000000000000000000000000000000000000000000000000000000000000000000000000000000000000000000000000PES00010000001000000000000000020180905
201809050060000300000000000000001378000000000000000013788000000000030667606566TIZZANO REPUESTOS SOCIEDAD DE 000000000871200000000000000000000000000000000000000000000000000000000000000000000000000000000000000000000000000000000000PES00010000001000000000000000020181015
201809050060000400000000000000004095000000000000000040959600000000000008631233SADOVA OSVALDO ROQUE          000000000367979000000000000000000000000000000000000000000000000000000000000000000000000000000000000000000000000000000000PES00010000001000000000000000020180905
201809050010000300000000000000003142000000000000000031428000000000030646700279RM RECTIFICACIONES SA         000000000788894000000000000000000000000000000000000000000000000000000000000000000000000000000000000000000000000000000000PES00010000001000000000000000020181015
201809050010000300000000000000003143000000000000000031438000000000030646700279RM RECTIFICACIONES SA         000000000030223000000000000000000000000000000000000000000000000000000000000000000000000000000000000000000000000000000000PES00010000001000000000000000020181015
201809050010000300000000000000003144000000000000000031448000000000020277826489BAROLIN QUINTANA ERARDO PABLO 000000000188455000000000000000000000000000000000000000000000000000000000000000000000000000000000000000000000000000000000PES00010000001000000000000000020181015
201809050060000400000000000000004096000000000000000040969600000000000038392405FERMIN LOPEZ                  000000000031997000000000000000000000000000000000000000000000000000000000000000000000000000000000000000000000000000000000PES00010000001000000000000000020180905
201809060080000300000000000000000202000000000000000002028000000000027106634594COULLERY NILDA BEATRIZ        000000000229235000000000000000000000000000000000000000000000000000000000000000000000000000000000000000000000000000000000PES00010000001000000000000000020180906
201809060010000300000000000000003145000000000000000031458000000000030710576196TRANSPORTE DON HUGO SRL.      000000000559711000000000000000000000000000000000000000000000000000000000000000000000000000000000000000000000000000000000PES00010000001000000000000000020181016
201809060010000300000000000000003146000000000000000031468000000000020084587991GIACOMELI JORGE ANDRES        000000000174417000000000000000000000000000000000000000000000000000000000000000000000000000000000000000000000000000000000PES00010000001000000000000000020181016
201809060060000400000000000000004097000000000000000040979600000000000033636769LOPEZ ALEJANDRO               000000000049997000000000000000000000000000000000000000000000000000000000000000000000000000000000000000000000000000000000PES00010000001000000000000000020180906
201809060060000400000000000000004098000000000000000040989600000000000028315023SANCHEZ LEONARDO              000000000120693000000000000000000000000000000000000000000000000000000000000000000000000000000000000000000000000000000000PES00010000001000000000000000020180906
201809060060000400000000000000004099000000000000000040999600000000000000000001CONSUMIDOR FINAL              000000000064996000000000000000000000000000000000000000000000000000000000000000000000000000000000000000000000000000000000PES00010000001000000000000000020180906
201809060060000400000000000000004100000000000000000041009600000000000000000001CONSUMIDOR FINAL              000000000064996000000000000000000000000000000000000000000000000000000000000000000000000000000000000000000000000000000000PES00010000001000000000000000020180906
201809060060000400000000000000004101000000000000000041019600000000000000000001CONSUMIDOR FINAL              000000000030998000000000000000000000000000000000000000000000000000000000000000000000000000000000000000000000000000000000PES00010000001000000000000000020180906
201809070010000300000000000000003147000000000000000031478000000000027328023860INSAURRALDE MARIA BELEN       000000000839141000000000000000000000000000000000000000000000000000000000000000000000000000000000000000000000000000000000PES00010000001000000000000000020181017
201809070010000300000000000000003148000000000000000031488000000000027328023860INSAURRALDE MARIA BELEN       000000000202199000000000000000000000000000000000000000000000000000000000000000000000000000000000000000000000000000000000PES00010000001000000000000000020181017
201809070010000300000000000000003149000000000000000031498000000000027328023860INSAURRALDE MARIA BELEN       000000000135714000000000000000000000000000000000000000000000000000000000000000000000000000000000000000000000000000000000PES00010000001000000000000000020181017
201809070010000300000000000000003150000000000000000031508000000000027244828170BUJAKIEWIEZ MIRIAN ROSANA     000000000251438000000000000000000000000000000000000000000000000000000000000000000000000000000000000000000000000000000000PES00010000001000000000000000020181017
201809070060000300000000000000001379000000000000000013798000000000020245963042BURGOS CESAR EMILIO           000000000176480000000000000000000000000000000000000000000000000000000000000000000000000000000000000000000000000000000000PES00010000001000000000000000020181017
201809070060000400000000000000004102000000000000000041029600000000000000000001CONSUMIDOR FINAL              000000000021999000000000000000000000000000000000000000000000000000000000000000000000000000000000000000000000000000000000PES00010000001000000000000000020180907
201809070060000400000000000000004103000000000000000041039600000000000024933819SOTO                          000000000132793000000000000000000000000000000000000000000000000000000000000000000000000000000000000000000000000000000000PES00010000001000000000000000020180907
201809070010000300000000000000003151000000000000000031518000000000020130692339HOET CELSO RUBEN              000000000800742000000000000000000000000000000000000000000000000000000000000000000000000000000000000000000000000000000000PES00010000001000000000000000020181017
201809070060000300000000000000001380000000000000000013808000000000020215149685NAZAR MARTIN GUSTAVO          000000000063329000000000000000000000000000000000000000000000000000000000000000000000000000000000000000000000000000000000PES00010000001000000000000000020181017
201809070010000300000000000000003152000000000000000031528000000000020219245980GARCIA RUBEN ALBERTO          000000000306319000000000000000000000000000000000000000000000000000000000000000000000000000000000000000000000000000000000PES00010000001000000000000000020181017
201809070010000300000000000000003153000000000000000031538000000000030583519455REPARAZ MIGUEL ANGEL Y HERNAND000000000055425000000000000000000000000000000000000000000000000000000000000000000000000000000000000000000000000000000000PES00010000001000000000000000020181017
201809070060000400000000000000004104000000000000000041049600000000000016149557CASTELLANO                    000000000488673000000000000000000000000000000000000000000000000000000000000000000000000000000000000000000000000000000000PES00010000001000000000000000020180907
201809070010000300000000000000003154000000000000000031548000000000023085174169CARDOZO FELIPE                000000000108731000000000000000000000000000000000000000000000000000000000000000000000000000000000000000000000000000000000PES00010000001000000000000000020181017
201809070010000400000000000000000339000000000000000003398000000000030710772947PROKOBRA S.A                  000000000129993000000000000000000000000000000000000000000000000000000000000000000000000000000000000000000000000000000000PES00010000001000000000000000020180907
201809070060000300000000000000001381000000000000000013818000000000020115149815MARTENE MARTIN JOSE           000000000240438000000000000000000000000000000000000000000000000000000000000000000000000000000000000000000000000000000000PES00010000001000000000000000020181017
201809070060000300000000000000001382000000000000000013829600000000000000000001HUGO                          000000000094307000000000000000000000000000000000000000000000000000000000000000000000000000000000000000000000000000000000PES00010000001000000000000000020180907
201809070060000400000000000000004105000000000000000041059600000000000033398333RODRIGUEZ                     000000000174990000000000000000000000000000000000000000000000000000000000000000000000000000000000000000000000000000000000PES00010000001000000000000000020180907
201809070010000400000000000000000340000000000000000003408000000000020255406346GABER ROBERTO JAVIER          000000000899950000000000000000000000000000000000000000000000000000000000000000000000000000000000000000000000000000000000PES00010000001000000000000000020180907
201809070060000400000000000000004106000000000000000041069600000000000000000001CONSUMIDOR FINAL              000000000031998000000000000000000000000000000000000000000000000000000000000000000000000000000000000000000000000000000000PES00010000001000000000000000020180907
201809070010000300000000000000003155000000000000000031558000000000020122639453FERNANDEZ MIGUEL ANGEL        000000000268434000000000000000000000000000000000000000000000000000000000000000000000000000000000000000000000000000000000PES00010000001000000000000000020181017
201809070060000300000000000000001383000000000000000013838000000000020058078906BARBOSA RAMON LEONIDAS        000000000174191000000000000000000000000000000000000000000000000000000000000000000000000000000000000000000000000000000000PES00010000001000000000000000020181017
201809070010000300000000000000003156000000000000000031568000000000030710576196TRANSPORTE DON HUGO SRL.      000000000132108000000000000000000000000000000000000000000000000000000000000000000000000000000000000000000000000000000000PES00010000001000000000000000020181017
201809070060000400000000000000004107000000000000000041079600000000000033689227MOLINA                        000000000099994000000000000000000000000000000000000000000000000000000000000000000000000000000000000000000000000000000000PES00010000001000000000000000020180907
201809070060000400000000000000004108000000000000000041089600000000000008004268MARTINEZ                      000000000149992000000000000000000000000000000000000000000000000000000000000000000000000000000000000000000000000000000000PES00010000001000000000000000020180907
201809080060000300000000000000001384000000000000000013848000000000020336450609GRANDWAGEN                    000000000133492000000000000000000000000000000000000000000000000000000000000000000000000000000000000000000000000000000000PES00010000001000000000000000020181008
201809080060000400000000000000004109000000000000000041098000000000027173182274ESPARZA SILVIA ESTELA         000000000044997000000000000000000000000000000000000000000000000000000000000000000000000000000000000000000000000000000000PES00010000001000000000000000020180908
201809080060000300000000000000001385000000000000000013858000000000020115149815MARTENE MARTIN JOSE           000000000085207000000000000000000000000000000000000000000000000000000000000000000000000000000000000000000000000000000000PES00010000001000000000000000020181018
201809080060000300000000000000001386000000000000000013868000000000020084414515DEZAN EDUARDO FRANSICO        000000000245053000000000000000000000000000000000000000000000000000000000000000000000000000000000000000000000000000000000PES00010000001000000000000000020181018
201809080060000300000000000000001387000000000000000013879600000000000023982972ANDERSON ALEJANDRO            000000000163497000000000000000000000000000000000000000000000000000000000000000000000000000000000000000000000000000000000PES00010000001000000000000000020181018
201809080060000300000000000000001388000000000000000013888000000000020058078906BARBOSA RAMON LEONIDAS        000000001002130000000000000000000000000000000000000000000000000000000000000000000000000000000000000000000000000000000000PES00010000001000000000000000020181018
201809080010000300000000000000003157000000000000000031578000000000027042738587BALDINI LIDIA AURORA          000000000084700000000000000000000000000000000000000000000000000000000000000000000000000000000000000000000000000000000000PES00010000001000000000000000020181018
201809080010000300000000000000003158000000000000000031588000000000020049967617ARGUELLO RAMON AURELIO        000000001438950000000000000000000000000000000000000000000000000000000000000000000000000000000000000000000000000000000000PES00010000001000000000000000020181018
201809080030000300000000000000000334000000000000000003348000000000027042738587BALDINI LIDIA AURORA          000000000042350000000000000000000000000000000000000000000000000000000000000000000000000000000000000000000000000000000000PES00010000001000000000000000020180908
201809100010000300000000000000003159000000000000000031598000000000020337136657SCHMUNCK MAURO ERNESTO        000000000596233000000000000000000000000000000000000000000000000000000000000000000000000000000000000000000000000000000000PES00010000001000000000000000020181020
201809100010000400000000000000000341000000000000000003418000000000030709768502ALE HAVYLIFT AUSTRAL S.A.     000000000054997000000000000000000000000000000000000000000000000000000000000000000000000000000000000000000000000000000000PES00010000001000000000000000020180910
201809100060000400000000000000004110000000000000000041109600000000000000000001CONSUMIDOR FINAL              000000000062497000000000000000000000000000000000000000000000000000000000000000000000000000000000000000000000000000000000PES00010000001000000000000000020180910
201809100060000400000000000000004111000000000000000041119600000000000000000001CONSUMIDOR FINAL              000000000024999000000000000000000000000000000000000000000000000000000000000000000000000000000000000000000000000000000000PES00010000001000000000000000020180910
201809100060000400000000000000004112000000000000000041129600000000000021484305HERRERA JORGE                 000000000099994000000000000000000000000000000000000000000000000000000000000000000000000000000000000000000000000000000000PES00010000001000000000000000020180910
201809100060000400000000000000004113000000000000000041139600000000000035427207LUCIANO CISTERNA              000000000069996000000000000000000000000000000000000000000000000000000000000000000000000000000000000000000000000000000000PES00010000001000000000000000020180910
201809110010000300000000000000003160000000000000000031608000000000020059279069SCHYMANSKY CONRADO RODOLFO    000000000058443000000000000000000000000000000000000000000000000000000000000000000000000000000000000000000000000000000000PES00010000001000000000000000020181021
201809110010000300000000000000003161000000000000000031618000000000020271249137GABIOUD GUILLERMO RAUL        000000003095260000000000000000000000000000000000000000000000000000000000000000000000000000000000000000000000000000000000PES00010000001000000000000000020181021
201809110030000300000000000000000335000000000000000003358000000000020271249137GABIOUD GUILLERMO RAUL        000000000182861000000000000000000000000000000000000000000000000000000000000000000000000000000000000000000000000000000000PES00010000001000000000000000020180911
201809110060000400000000000000004114000000000000000041149600000000000040917569VELAZQUEZ                     000000000202489000000000000000000000000000000000000000000000000000000000000000000000000000000000000000000000000000000000PES00010000001000000000000000020180911
201809110060000400000000000000004115000000000000000041159600000000000000000001CONSUMIDOR FINAL              000000000014999000000000000000000000000000000000000000000000000000000000000000000000000000000000000000000000000000000000PES00010000001000000000000000020180911
201809110060000400000000000000004116000000000000000041169600000000000024427740GONZALEZ MAURICIO             000000000849952000000000000000000000000000000000000000000000000000000000000000000000000000000000000000000000000000000000PES00010000001000000000000000020180911
201809110010000400000000000000000342000000000000000003428000000000030678519681FORD ARGENTINA SOCIEDAD EN COM000000000041998000000000000000000000000000000000000000000000000000000000000000000000000000000000000000000000000000000000PES00010000001000000000000000020180911
201809110060000400000000000000004117000000000000000041179600000000000033910596JAQUELINE                     000000000339981000000000000000000000000000000000000000000000000000000000000000000000000000000000000000000000000000000000PES00010000001000000000000000020180911
201809120010000300000000000000003162000000000000000031628000000000020271249137GABIOUD GUILLERMO RAUL        000000001710570000000000000000000000000000000000000000000000000000000000000000000000000000000000000000000000000000000000PES00010000001000000000000000020181022
201809120010000300000000000000003163000000000000000031638000000000027244828170BUJAKIEWIEZ MIRIAN ROSANA     000000000365036000000000000000000000000000000000000000000000000000000000000000000000000000000000000000000000000000000000PES00010000001000000000000000020181022
201809120060000300000000000000001389000000000000000013898000000000020245963042BURGOS CESAR EMILIO           000000000970941000000000000000000000000000000000000000000000000000000000000000000000000000000000000000000000000000000000PES00010000001000000000000000020181022
201809120010000300000000000000003164000000000000000031648000000000020271249137GABIOUD GUILLERMO RAUL        000000000048159000000000000000000000000000000000000000000000000000000000000000000000000000000000000000000000000000000000PES00010000001000000000000000020181022
201809120060000400000000000000004118000000000000000041189600000000000011788332DIAZ                          000000000111994000000000000000000000000000000000000000000000000000000000000000000000000000000000000000000000000000000000PES00010000001000000000000000020180912
201809120010000300000000000000003165000000000000000031658000000000020219245980GARCIA RUBEN ALBERTO          000000000314253000000000000000000000000000000000000000000000000000000000000000000000000000000000000000000000000000000000PES00010000001000000000000000020181022
201809120060000300000000000000001390000000000000000013908000000000020920155821BAEZ BAEZ AMADO               000000000049467000000000000000000000000000000000000000000000000000000000000000000000000000000000000000000000000000000000PES00010000001000000000000000020180912
201809130010000300000000000000003166000000000000000031668000000000020244870229ANDERSSON NELSON              000000000204180000000000000000000000000000000000000000000000000000000000000000000000000000000000000000000000000000000000PES00010000001000000000000000020181023
201809130060000300000000000000001391000000000000000013918000000000020920155821BAEZ BAEZ AMADO               000000000088519000000000000000000000000000000000000000000000000000000000000000000000000000000000000000000000000000000000PES00010000001000000000000000020180913
201809130060000300000000000000001392000000000000000013928000000000027305272049LOUND ELISA                   000000000982091000000000000000000000000000000000000000000000000000000000000000000000000000000000000000000000000000000000PES00010000001000000000000000020181023
201809130060000300000000000000001393000000000000000013938000000000020337699953MARTIN EZEQUIEL STREITENBERGER000000000158023000000000000000000000000000000000000000000000000000000000000000000000000000000000000000000000000000000000PES00010000001000000000000000020181023
201809130010000300000000000000003167000000000000000031678000000000027108602541VITALE TERESA ALICIA          000000000085692000000000000000000000000000000000000000000000000000000000000000000000000000000000000000000000000000000000PES00010000001000000000000000020181023
201809130060000400000000000000004119000000000000000041199600000000000000000001CONSUMIDOR FINAL              000000000028999000000000000000000000000000000000000000000000000000000000000000000000000000000000000000000000000000000000PES00010000001000000000000000020180913
201809130060000400000000000000004120000000000000000041209600000000000022497132ATILIO ANDRADA                000000000206989000000000000000000000000000000000000000000000000000000000000000000000000000000000000000000000000000000000PES00010000001000000000000000020180913
201809130060000400000000000000004121000000000000000041219600000000000037482940GUSTAVO ARRUA                 000000000031499000000000000000000000000000000000000000000000000000000000000000000000000000000000000000000000000000000000PES00010000001000000000000000020180913
201809130060000300000000000000001394000000000000000013948000000000020920155821BAEZ BAEZ AMADO               000000000050925000000000000000000000000000000000000000000000000000000000000000000000000000000000000000000000000000000000PES00010000001000000000000000020180913
201809140010000300000000000000003168000000000000000031688000000000020277826489BAROLIN QUINTANA ERARDO PABLO 000000000230388000000000000000000000000000000000000000000000000000000000000000000000000000000000000000000000000000000000PES00010000001000000000000000020181024
201809140010000300000000000000003169000000000000000031698000000000027057539866OBIATA RAQUEL                 000000000235792000000000000000000000000000000000000000000000000000000000000000000000000000000000000000000000000000000000PES00010000001000000000000000020181024
201809140010000300000000000000003170000000000000000031708000000000027251530462IMAS MARIA DE LOS ANGELES     000000000352676000000000000000000000000000000000000000000000000000000000000000000000000000000000000000000000000000000000PES00010000001000000000000000020181024
201809140010000400000000000000000343000000000000000003438000000000030715602845ENFRIADORES Y ACONDICIONADORES000000000082495000000000000000000000000000000000000000000000000000000000000000000000000000000000000000000000000000000000PES00010000001000000000000000020180914
201809140010000300000000000000003171000000000000000031718000000000027251530462IMAS MARIA DE LOS ANGELES     000000000132445000000000000000000000000000000000000000000000000000000000000000000000000000000000000000000000000000000000PES00010000001000000000000000020181024
201809140010000300000000000000003172000000000000000031728000000000027118318795COBO LILIANA VICTORIA         000000000474637000000000000000000000000000000000000000000000000000000000000000000000000000000000000000000000000000000000PES00010000001000000000000000020181024
201809140010000300000000000000003173000000000000000031738000000000020148146927STACCIUOLI OSVALDO ALBERTO    000000000326795000000000000000000000000000000000000000000000000000000000000000000000000000000000000000000000000000000000PES00010000001000000000000000020181024
201809140060000400000000000000004122000000000000000041229600000000000011953970CARLOS INSAURRALDE            000000000639564000000000000000000000000000000000000000000000000000000000000000000000000000000000000000000000000000000000PES00010000001000000000000000020180914
201809140060000400000000000000004123000000000000000041239600000000000020770658ANIBAL SCOLARI                000000000329982000000000000000000000000000000000000000000000000000000000000000000000000000000000000000000000000000000000PES00010000001000000000000000020180914
201809150060000400000000000000004124000000000000000041249600000000000000000001CONSUMIDOR FINAL              000000000038497000000000000000000000000000000000000000000000000000000000000000000000000000000000000000000000000000000000PES00010000001000000000000000020180915
201809170060000300000000000000001395000000000000000013958000000000020302234516RAMIREZ PABLO EFRAIN          000000000073174000000000000000000000000000000000000000000000000000000000000000000000000000000000000000000000000000000000PES00010000001000000000000000020181027
201809170010000300000000000000003174000000000000000031748000000000020122639453FERNANDEZ MIGUEL ANGEL        000000001054750000000000000000000000000000000000000000000000000000000000000000000000000000000000000000000000000000000000PES00010000001000000000000000020181027
201809170010000300000000000000003175000000000000000031758000000000020049967617ARGUELLO RAMON AURELIO        000000001213630000000000000000000000000000000000000000000000000000000000000000000000000000000000000000000000000000000000PES00010000001000000000000000020181027
201809170010000300000000000000003176000000000000000031768000000000027244828170BUJAKIEWIEZ MIRIAN ROSANA     000000002187520000000000000000000000000000000000000000000000000000000000000000000000000000000000000000000000000000000000PES00010000001000000000000000020181027
201809170010000300000000000000003177000000000000000031778000000000027244828170BUJAKIEWIEZ MIRIAN ROSANA     000000000084310000000000000000000000000000000000000000000000000000000000000000000000000000000000000000000000000000000000PES00010000001000000000000000020181027
201809170030000300000000000000000336000000000000000003368000000000027244828170BUJAKIEWIEZ MIRIAN ROSANA     000000000277516000000000000000000000000000000000000000000000000000000000000000000000000000000000000000000000000000000000PES00010000001000000000000000020180917
201809170010000300000000000000003178000000000000000031788000000000027244828170BUJAKIEWIEZ MIRIAN ROSANA     000000000258043000000000000000000000000000000000000000000000000000000000000000000000000000000000000000000000000000000000PES00010000001000000000000000020181027
201809170060000400000000000000004125000000000000000041259600000000000030928772VICTOR ARRIOLA                000000000339181000000000000000000000000000000000000000000000000000000000000000000000000000000000000000000000000000000000PES00010000001000000000000000020180917
201809170060000400000000000000004126000000000000000041269600000000000033343501FERNANDEZ PICCOLO MIGUEL ALEJA000000000058496000000000000000000000000000000000000000000000000000000000000000000000000000000000000000000000000000000000PES00010000001000000000000000020180917
201809170060000400000000000000004127000000000000000041279600000000000026650621ESTEBAN ROBLES                000000000344981000000000000000000000000000000000000000000000000000000000000000000000000000000000000000000000000000000000PES00010000001000000000000000020180917
201809170060000400000000000000004128000000000000000041289600000000000027191622MARIAANA SZYPKOWSKI           000000000029998000000000000000000000000000000000000000000000000000000000000000000000000000000000000000000000000000000000PES00010000001000000000000000020180917
201809180060000400000000000000004129000000000000000041299600000000000017491531LUIS GUARNOCHEA               000000000237487000000000000000000000000000000000000000000000000000000000000000000000000000000000000000000000000000000000PES00010000001000000000000000020180918
201809180010000300000000000000003179000000000000000031798000000000020270687068SCHMIDT CARLOS GUSTAVO        000000000142079000000000000000000000000000000000000000000000000000000000000000000000000000000000000000000000000000000000PES00010000001000000000000000020181028
201809180010000300000000000000003180000000000000000031808000000000023085174169CARDOZO FELIPE                000000001116350000000000000000000000000000000000000000000000000000000000000000000000000000000000000000000000000000000000PES00010000001000000000000000020181028
201809180010000300000000000000003181000000000000000031818000000000023085174169CARDOZO FELIPE                000000000420209000000000000000000000000000000000000000000000000000000000000000000000000000000000000000000000000000000000PES00010000001000000000000000020181028
201809180060000300000000000000001396000000000000000013969600000000000026168397CASCABALLO ISRAEL NICOLAS     000000000107357000000000000000000000000000000000000000000000000000000000000000000000000000000000000000000000000000000000PES00010000001000000000000000020181018
201809180010000300000000000000003182000000000000000031828000000000020215911447AESCHLIMANN ARIEL JOSUE       000000000038106000000000000000000000000000000000000000000000000000000000000000000000000000000000000000000000000000000000PES00010000001000000000000000020181028
201809180010000400000000000000000344000000000000000003448000000000030710772947PROKOBRA S.A                  000000000026999000000000000000000000000000000000000000000000000000000000000000000000000000000000000000000000000000000000PES00010000001000000000000000020180918
201809180060000400000000000000004130000000000000000041309600000000000028747689ALEXIS PIEGAS                 000000000032998000000000000000000000000000000000000000000000000000000000000000000000000000000000000000000000000000000000PES00010000001000000000000000020180918
201809180060000400000000000000004131000000000000000041319600000000000027191622MARIA                         000000000056497000000000000000000000000000000000000000000000000000000000000000000000000000000000000000000000000000000000PES00010000001000000000000000020180918
201809180060000400000000000000004132000000000000000041329600000000000021711242LEPORACE                      000000000014999000000000000000000000000000000000000000000000000000000000000000000000000000000000000000000000000000000000PES00010000001000000000000000020180918
201809190010000300000000000000003183000000000000000031838000000000030650492648PATAT JUAN CARLOS MANUCCI ILDA000000000208174000000000000000000000000000000000000000000000000000000000000000000000000000000000000000000000000000000000PES00010000001000000000000000020181029
201809190060000300000000000000001397000000000000000013978000000000020200621159TUPONE DAVID ALEJANDRO        000000000405380000000000000000000000000000000000000000000000000000000000000000000000000000000000000000000000000000000000PES00010000001000000000000000020181029
201809190060000300000000000000001398000000000000000013988000000000020200621159TUPONE DAVID ALEJANDRO        000000000107739000000000000000000000000000000000000000000000000000000000000000000000000000000000000000000000000000000000PES00010000001000000000000000020181029
201809190010000300000000000000003184000000000000000031848000000000027328023860INSAURRALDE MARIA BELEN       000000001537020000000000000000000000000000000000000000000000000000000000000000000000000000000000000000000000000000000000PES00010000001000000000000000020181029
201809190010000300000000000000003185000000000000000031858000000000020274665573MONTERO HUGO EMILIANO         000000000635255000000000000000000000000000000000000000000000000000000000000000000000000000000000000000000000000000000000PES00010000001000000000000000020181029
201809190010000300000000000000003186000000000000000031868000000000030712871403REPUESTOS SLS SRL             000000003024650000000000000000000000000000000000000000000000000000000000000000000000000000000000000000000000000000000000PES00010000001000000000000000020181029
201809190030000300000000000000000337000000000000000003378000000000027328023860INSAURRALDE MARIA BELEN       000000000030560000000000000000000000000000000000000000000000000000000000000000000000000000000000000000000000000000000000PES00010000001000000000000000020180919
201809190060000300000000000000001399000000000000000013998000000000020115149815MARTENE MARTIN JOSE           000000000197153000000000000000000000000000000000000000000000000000000000000000000000000000000000000000000000000000000000PES00010000001000000000000000020181029
201809190060000400000000000000004133000000000000000041339600000000000027191622SZYPKOWSKI                    000000000022998000000000000000000000000000000000000000000000000000000000000000000000000000000000000000000000000000000000PES00010000001000000000000000020180919
201809190060000400000000000000004134000000000000000041349600000000000030066682MATIAS MIÑO                   000000000069996000000000000000000000000000000000000000000000000000000000000000000000000000000000000000000000000000000000PES00010000001000000000000000020180919
201809190060000400000000000000004135000000000000000041359600000000000028725868ESTEBAN PAN                   000000000091995000000000000000000000000000000000000000000000000000000000000000000000000000000000000000000000000000000000PES00010000001000000000000000020180919
201809190060000400000000000000004136000000000000000041369600000000000024862765DARIO LLORENS                 000000000064996000000000000000000000000000000000000000000000000000000000000000000000000000000000000000000000000000000000PES00010000001000000000000000020180919
201809190060000400000000000000004137000000000000000041379600000000000025477876HERNAN PAIS                   000000000029998000000000000000000000000000000000000000000000000000000000000000000000000000000000000000000000000000000000PES00010000001000000000000000020180919
201809190060000400000000000000004138000000000000000041389600000000000035427056BARRERA STELLA                000000000072996000000000000000000000000000000000000000000000000000000000000000000000000000000000000000000000000000000000PES00010000001000000000000000020180919
201809200010000400000000000000000345000000000000000003458000000000030584594345ILSA IMPRESIONES LITOGRAFICAS 000000000021999000000000000000000000000000000000000000000000000000000000000000000000000000000000000000000000000000000000PES00010000001000000000000000020180920
201809200010000400000000000000000346000000000000000003468000000000030584594345ILSA IMPRESIONES LITOGRAFICAS 000000000025998000000000000000000000000000000000000000000000000000000000000000000000000000000000000000000000000000000000PES00010000001000000000000000020180920
201809200010000300000000000000003187000000000000000031878000000000020049967617ARGUELLO RAMON AURELIO        000000000681778000000000000000000000000000000000000000000000000000000000000000000000000000000000000000000000000000000000PES00010000001000000000000000020181030
201809200060000400000000000000004139000000000000000041399600000000000010328800RUBEN PERALTA                 000000000048998000000000000000000000000000000000000000000000000000000000000000000000000000000000000000000000000000000000PES00010000001000000000000000020180920
201809200010000400000000000000000347000000000000000003478000000000030710036973MOTOR NORTE SRL               000000000124993000000000000000000000000000000000000000000000000000000000000000000000000000000000000000000000000000000000PES00010000001000000000000000020180920
201809200060000400000000000000004140000000000000000041409600000000000021711302ALEJANDRO ROMERO              000000000059997000000000000000000000000000000000000000000000000000000000000000000000000000000000000000000000000000000000PES00010000001000000000000000020180920
201809200010000400000000000000000348000000000000000003488000000000030715602845ENFRIADORES Y ACONDICIONADORES000000000139992000000000000000000000000000000000000000000000000000000000000000000000000000000000000000000000000000000000PES00010000001000000000000000020180920
201809200010000400000000000000000349000000000000000003498000000000030678774495OPERADORA DE ESTACIONES DE SER000000000109994000000000000000000000000000000000000000000000000000000000000000000000000000000000000000000000000000000000PES00010000001000000000000000020180920
201809210010000400000000000000000350000000000000000003508000000000020284367457MARCOS CONDOLUCI              000000000045997000000000000000000000000000000000000000000000000000000000000000000000000000000000000000000000000000000000PES00010000001000000000000000020180921
201809210010000300000000000000003188000000000000000031888000000000020085690990COLOMBO HECTOR AGUSTIN        000000000914662000000000000000000000000000000000000000000000000000000000000000000000000000000000000000000000000000000000PES00010000001000000000000000020181031
201809210010000400000000000000000351000000000000000003518000000000020103652775MERLINO LUIS ALBERTO          000000000094995000000000000000000000000000000000000000000000000000000000000000000000000000000000000000000000000000000000PES00010000001000000000000000020180921
201809210060000400000000000000004141000000000000000041419600000000000034200694VOLPE CINTHIA                 000000000096995000000000000000000000000000000000000000000000000000000000000000000000000000000000000000000000000000000000PES00010000001000000000000000020180921
201809210060000300000000000000001400000000000000000014009600000000000026168397CASCABALLO ISRAEL NICOLAS     000000000102252000000000000000000000000000000000000000000000000000000000000000000000000000000000000000000000000000000000PES00010000001000000000000000020181021
201809210080000300000000000000000203000000000000000002039600000000000026168397CASCABALLO ISRAEL NICOLAS     000000000107357000000000000000000000000000000000000000000000000000000000000000000000000000000000000000000000000000000000PES00010000001000000000000000020180921
201809210010000300000000000000003189000000000000000031898000000000020201660913NOEL CARLOS EDUARDO           000000000116663000000000000000000000000000000000000000000000000000000000000000000000000000000000000000000000000000000000PES00010000001000000000000000020181031
201809210060000300000000000000001401000000000000000014018000000000023143234509MEZTLER SERGIO                000000000299002000000000000000000000000000000000000000000000000000000000000000000000000000000000000000000000000000000000PES00010000001000000000000000020181031
201809210060000300000000000000001402000000000000000014028000000000023143234509MEZTLER SERGIO                000000000032188000000000000000000000000000000000000000000000000000000000000000000000000000000000000000000000000000000000PES00010000001000000000000000020181031
201809210010000300000000000000003190000000000000000031908000000000020058748871PUCCIO ARTURO DOMINGO         000000000382322000000000000000000000000000000000000000000000000000000000000000000000000000000000000000000000000000000000PES00010000001000000000000000020181031
201809210010000300000000000000003191000000000000000031918000000000020058748871PUCCIO ARTURO DOMINGO         000000000009703000000000000000000000000000000000000000000000000000000000000000000000000000000000000000000000000000000000PES00010000001000000000000000020181031
201809210060000400000000000000004142000000000000000041429600000000000014439408ANDRES VIDAL                  000000000033999000000000000000000000000000000000000000000000000000000000000000000000000000000000000000000000000000000000PES00010000001000000000000000020180921
201809220060000400000000000000004143000000000000000041439600000000000000000001CONSUMIDOR FINAL              000000000059997000000000000000000000000000000000000000000000000000000000000000000000000000000000000000000000000000000000PES00010000001000000000000000020180922
201809240060000400000000000000004144000000000000000041449600000000000000000001CONSUMIDOR FINAL              000000000038998000000000000000000000000000000000000000000000000000000000000000000000000000000000000000000000000000000000PES00010000001000000000000000020180924
201809240060000400000000000000004145000000000000000041459600000000000029129231MALDONADO                     000000000321982000000000000000000000000000000000000000000000000000000000000000000000000000000000000000000000000000000000PES00010000001000000000000000020180924
201809240060000400000000000000004146000000000000000041469600000000000000000001CONSUMIDOR FINAL              000000000021999000000000000000000000000000000000000000000000000000000000000000000000000000000000000000000000000000000000PES00010000001000000000000000020180924
201809240060000400000000000000004147000000000000000041479600000000000000000001CONSUMIDOR FINAL              000000000067996000000000000000000000000000000000000000000000000000000000000000000000000000000000000000000000000000000000PES00010000001000000000000000020180924
201809250060000400000000000000004148000000000000000041489600000000000093407638GONZALEZ                      000000000019999000000000000000000000000000000000000000000000000000000000000000000000000000000000000000000000000000000000PES00010000001000000000000000020180925
201809250060000400000000000000004149000000000000000041499600000000000023355897MARINA CORVALAN               000000000245986000000000000000000000000000000000000000000000000000000000000000000000000000000000000000000000000000000000PES00010000001000000000000000020180925
201809250060000300000000000000001403000000000000000014038000000000020115149815MARTENE MARTIN JOSE           000000000512221000000000000000000000000000000000000000000000000000000000000000000000000000000000000000000000000000000000PES00010000001000000000000000020181104
201809250060000400000000000000004150000000000000000041509600000000000000000001CONSUMIDOR FINAL              000000000038998000000000000000000000000000000000000000000000000000000000000000000000000000000000000000000000000000000000PES00010000001000000000000000020180925
201809250060000400000000000000004151000000000000000041519600000000000030066118MARTIN OGAS                   000000000153992000000000000000000000000000000000000000000000000000000000000000000000000000000000000000000000000000000000PES00010000001000000000000000020180925
201809250060000400000000000000004152000000000000000041529600000000000000000001CONSUMIDOR FINAL              000000000040997000000000000000000000000000000000000000000000000000000000000000000000000000000000000000000000000000000000PES00010000001000000000000000020180925
201809250010000300000000000000003192000000000000000031928000000000020147186372ORTEGA ENRIQUE CLAUDIO        000000000300830000000000000000000000000000000000000000000000000000000000000000000000000000000000000000000000000000000000PES00010000001000000000000000020181104
201809250010000400000000000000000352000000000000000003528000000000020334790305SAGUIER FERNANDO NICOLAS      000000000109994000000000000000000000000000000000000000000000000000000000000000000000000000000000000000000000000000000000PES00010000001000000000000000020180925
201809250010000300000000000000003193000000000000000031938000000000020100818761HOLM CARLOS ALBERTO           000000000130338000000000000000000000000000000000000000000000000000000000000000000000000000000000000000000000000000000000PES00010000001000000000000000020181025
201809250010000300000000000000003194000000000000000031948000000000023200440919ITURRALDE ESTEBAN MARIO       000000000827691000000000000000000000000000000000000000000000000000000000000000000000000000000000000000000000000000000000PES00010000001000000000000000020181104
201809260010000300000000000000003195000000000000000031958000000000027251530462IMAS MARIA DE LOS ANGELES     000000000433458000000000000000000000000000000000000000000000000000000000000000000000000000000000000000000000000000000000PES00010000001000000000000000020181105
201809260010000300000000000000003196000000000000000031968000000000020270687068SCHMIDT CARLOS GUSTAVO        000000000120754000000000000000000000000000000000000000000000000000000000000000000000000000000000000000000000000000000000PES00010000001000000000000000020181105
201809260030000300000000000000000338000000000000000003388000000000020242719442FAZIO PASCUAL ADRIAN          000000000091856000000000000000000000000000000000000000000000000000000000000000000000000000000000000000000000000000000000PES00010000001000000000000000020180926
201809260060000400000000000000004153000000000000000041539600000000000000000001CONSUMIDOR FINAL              000000000067996000000000000000000000000000000000000000000000000000000000000000000000000000000000000000000000000000000000PES00010000001000000000000000020180926
201809260060000400000000000000004154000000000000000041549600000000000095786698ROBERT OMAR VALENCIA OMAR     000000000329982000000000000000000000000000000000000000000000000000000000000000000000000000000000000000000000000000000000PES00010000001000000000000000020180926
201809260060000400000000000000004155000000000000000041559600000000000024535316ALBERTO SOUZA                 000000000027998000000000000000000000000000000000000000000000000000000000000000000000000000000000000000000000000000000000PES00010000001000000000000000020180926
201809260010000300000000000000003197000000000000000031978000000000020201660913NOEL CARLOS EDUARDO           000000000913634000000000000000000000000000000000000000000000000000000000000000000000000000000000000000000000000000000000PES00010000001000000000000000020181105
201809260060000400000000000000004156000000000000000041569600000000000026436934ADRIAN ALBARRACIN             000000000199489000000000000000000000000000000000000000000000000000000000000000000000000000000000000000000000000000000000PES00010000001000000000000000020180926
201809260060000400000000000000004157000000000000000041579600000000000033398472CONSUMIDOR FINAL              000000000134992000000000000000000000000000000000000000000000000000000000000000000000000000000000000000000000000000000000PES00010000001000000000000000020180926
201809270010000300000000000000003198000000000000000031988000000000027328023860INSAURRALDE MARIA BELEN       000000000960755000000000000000000000000000000000000000000000000000000000000000000000000000000000000000000000000000000000PES00010000001000000000000000020181106
201809270010000300000000000000003199000000000000000031998000000000020274665573MONTERO HUGO EMILIANO         000000000708002000000000000000000000000000000000000000000000000000000000000000000000000000000000000000000000000000000000PES00010000001000000000000000020181106
201809270010000300000000000000003200000000000000000032008000000000020215911447AESCHLIMANN ARIEL JOSUE       000000000104215000000000000000000000000000000000000000000000000000000000000000000000000000000000000000000000000000000000PES00010000001000000000000000020181106
201809270010000300000000000000003201000000000000000032018000000000027165179590BAZAN SONIA MARIA             000000000213366000000000000000000000000000000000000000000000000000000000000000000000000000000000000000000000000000000000PES00010000001000000000000000020181106
201809270060000400000000000000004158000000000000000041589600000000000000000001CONSUMIDOR FINAL              000000000060996000000000000000000000000000000000000000000000000000000000000000000000000000000000000000000000000000000000PES00010000001000000000000000020180927
201809270010000300000000000000003202000000000000000032028000000000027328023860INSAURRALDE MARIA BELEN       000000000378575000000000000000000000000000000000000000000000000000000000000000000000000000000000000000000000000000000000PES00010000001000000000000000020181106
201809270010000300000000000000003203000000000000000032038000000000030712871403REPUESTOS SLS SRL             000000000143516000000000000000000000000000000000000000000000000000000000000000000000000000000000000000000000000000000000PES00010000001000000000000000020181106
201809270010000300000000000000003204000000000000000032048000000000020285968950GODOY GASTON LIONEL           000000000261904000000000000000000000000000000000000000000000000000000000000000000000000000000000000000000000000000000000PES00010000001000000000000000020181106
201809270060000300000000000000001404000000000000000014048000000000027136901228GONZALEZ MARIA LILIANA        000000000468548000000000000000000000000000000000000000000000000000000000000000000000000000000000000000000000000000000000PES00010000001000000000000000020181106
201809270010000300000000000000003205000000000000000032058000000000020085690990COLOMBO HECTOR AGUSTIN        000000000660642000000000000000000000000000000000000000000000000000000000000000000000000000000000000000000000000000000000PES00010000001000000000000000020181106
201809270060000400000000000000004159000000000000000041599600000000000011570673ANTONIO DEL VALLE             000000000087995000000000000000000000000000000000000000000000000000000000000000000000000000000000000000000000000000000000PES00010000001000000000000000020180927
201809270060000400000000000000004160000000000000000041608000000000030667682858SOCIEDAD DE BOMBEROS VOLUNTARI000000000007000000000000000000000000000000000000000000000000000000000000000000000000000000000000000000000000000000000000PES00010000001000000000000000020180927
201809280060000400000000000000004161000000000000000041619600000000000000000001CONSUMIDOR FINAL              000000000057997000000000000000000000000000000000000000000000000000000000000000000000000000000000000000000000000000000000PES00010000001000000000000000020180928
201809280010000300000000000000003206000000000000000032068000000000030650492648PATAT JUAN CARLOS MANUCCI ILDA000000000033616000000000000000000000000000000000000000000000000000000000000000000000000000000000000000000000000000000000PES00010000001000000000000000020181107
201809280060000400000000000000004162000000000000000041629600000000000000000001CONSUMIDOR FINAL              000000000039998000000000000000000000000000000000000000000000000000000000000000000000000000000000000000000000000000000000PES00010000001000000000000000020180928
201809280010000300000000000000003207000000000000000032078000000000020049967617ARGUELLO RAMON AURELIO        000000000467763000000000000000000000000000000000000000000000000000000000000000000000000000000000000000000000000000000000PES00010000001000000000000000020181107
201809280010000300000000000000003208000000000000000032088000000000030714807311MARRA ROSANA Y MARRA LUCIANO S000000000365090000000000000000000000000000000000000000000000000000000000000000000000000000000000000000000000000000000000PES00010000001000000000000000020181107
201809280010000300000000000000003209000000000000000032098000000000020337136657SCHMUNCK MAURO ERNESTO        000000000444497000000000000000000000000000000000000000000000000000000000000000000000000000000000000000000000000000000000PES00010000001000000000000000020181107
201809280010000300000000000000003210000000000000000032108000000000030708432268TECNIREP SOCIEDAD ANONIMA     000000000886330000000000000000000000000000000000000000000000000000000000000000000000000000000000000000000000000000000000PES00010000001000000000000000020181107
201809280060000300000000000000001405000000000000000014058000000000020250422513CABRERA MARTIN SEBASTIAN      000000000395879000000000000000000000000000000000000000000000000000000000000000000000000000000000000000000000000000000000PES00010000001000000000000000020181107
201809280060000400000000000000004163000000000000000041639600000000000036739505REGALO                        000000000018999000000000000000000000000000000000000000000000000000000000000000000000000000000000000000000000000000000000PES00010000001000000000000000020180928
201809280010000300000000000000003211000000000000000032118000000000020270687068SCHMIDT CARLOS GUSTAVO        000000000702869000000000000000000000000000000000000000000000000000000000000000000000000000000000000000000000000000000000PES00010000001000000000000000020181107
201809280030000300000000000000000339000000000000000003398000000000020270687068SCHMIDT CARLOS GUSTAVO        000000000702868000000000000000000000000000000000000000000000000000000000000000000000000000000000000000000000000000000000PES00010000001000000000000000020180928
201809280010000300000000000000003212000000000000000032128000000000020270687068SCHMIDT CARLOS GUSTAVO        000000000321087000000000000000000000000000000000000000000000000000000000000000000000000000000000000000000000000000000000PES00010000001000000000000000020181107
201809280060000400000000000000004164000000000000000041649600000000000029099914BRITO                         000000000096995000000000000000000000000000000000000000000000000000000000000000000000000000000000000000000000000000000000PES00010000001000000000000000020180928
201809280010000300000000000000003213000000000000000032138000000000020285968950GODOY GASTON LIONEL           000000000197753000000000000000000000000000000000000000000000000000000000000000000000000000000000000000000000000000000000PES00010000001000000000000000020181107
201809280010000300000000000000003214000000000000000032148000000000027296382650GOMEZ ROMINA PAOLA            000000000070629000000000000000000000000000000000000000000000000000000000000000000000000000000000000000000000000000000000PES00010000001000000000000000020181107
201809280060000400000000000000004165000000000000000041659600000000000029099914ARIEL BRITOS                  000000000185989000000000000000000000000000000000000000000000000000000000000000000000000000000000000000000000000000000000PES00010000001000000000000000020180928
201809280010000300000000000000003215000000000000000032158000000000030711835373DELMONT TRANCHIDA             000000000079142000000000000000000000000000000000000000000000000000000000000000000000000000000000000000000000000000000000PES00010000001000000000000000020181107
201809280010000300000000000000003216000000000000000032168000000000027357958232EICHMANN LUCIA                000000000464858000000000000000000000000000000000000000000000000000000000000000000000000000000000000000000000000000000000PES00010000001000000000000000020181107
201809280060000300000000000000001406000000000000000014069600000000000026168397CASCABALLO ISRAEL NICOLAS     000000000104262000000000000000000000000000000000000000000000000000000000000000000000000000000000000000000000000000000000PES00010000001000000000000000020181028
201809280060000400000000000000004166000000000000000041669600000000000014776215MARTINEZ                      000000000309983000000000000000000000000000000000000000000000000000000000000000000000000000000000000000000000000000000000PES00010000001000000000000000020180928
201809280060000400000000000000004167000000000000000041679600000000000033009030ANABELLA PEREZ                000000000785956000000000000000000000000000000000000000000000000000000000000000000000000000000000000000000000000000000000PES00010000001000000000000000020180928
201809280060000400000000000000004168000000000000000041689600000000000037941055EZEQUIEL GUITIERREZ           000000000049997000000000000000000000000000000000000000000000000000000000000000000000000000000000000000000000000000000000PES00010000001000000000000000020180928
201809280060000400000000000000004169000000000000000041699600000000000039408722BRAIN RUEDA                   000000000390978000000000000000000000000000000000000000000000000000000000000000000000000000000000000000000000000000000000PES00010000001000000000000000020180928
201809280060000400000000000000004170000000000000000041709600000000000036689288DAIANA CORON                  000000000224987000000000000000000000000000000000000000000000000000000000000000000000000000000000000000000000000000000000PES00010000001000000000000000020180928
201809280060000400000000000000004171000000000000000041719600000000000029099914ARIEL BRITOS                  000000000134992000000000000000000000000000000000000000000000000000000000000000000000000000000000000000000000000000000000PES00010000001000000000000000020180928
201809290010000300000000000000003217000000000000000032178000000000027348286604GAMARRO SOFIA VICTORIA        000000000614004000000000000000000000000000000000000000000000000000000000000000000000000000000000000000000000000000000000PES00010000001000000000000000020181108
201809290030000300000000000000000340000000000000000003408000000000027348286604GAMARRO SOFIA VICTORIA        000000000024529000000000000000000000000000000000000000000000000000000000000000000000000000000000000000000000000000000000PES00010000001000000000000000020180929
201809290060000400000000000000004172000000000000000041729600000000000037608161CONSUMIDOR FINAL              000000000239987000000000000000000000000000000000000000000000000000000000000000000000000000000000000000000000000000000000PES00010000001000000000000000020180929
201809290060000400000000000000004173000000000000000041739600000000000000000001CONSUMIDOR FINAL              000000000094995000000000000000000000000000000000000000000000000000000000000000000000000000000000000000000000000000000000PES00010000001000000000000000020180929
201809290030000300000000000000000341000000000000000003418000000000020271249137GABIOUD GUILLERMO RAUL        000000002912400000000000000000000000000000000000000000000000000000000000000000000000000000000000000000000000000000000000PES00010000001000000000000000020180929
201809290030000300000000000000000342000000000000000003428000000000020271249137GABIOUD GUILLERMO RAUL        000000001710570000000000000000000000000000000000000000000000000000000000000000000000000000000000000000000000000000000000PES00010000001000000000000000020180929
201809290030000300000000000000000343000000000000000003438000000000027251530462IMAS MARIA DE LOS ANGELES     000000001887240000000000000000000000000000000000000000000000000000000000000000000000000000000000000000000000000000000000PES00010000001000000000000000020180929
201809280080000400000000000000000028000000000000000000289600000000000020770658ANIBAL SCOLARI                000000000329982000000000000000000000000000000000000000000000000000000000000000000000000000000000000000000000000000000000PES00010000001000000000000000020180928
201809280080000400000000000000000029000000000000000000299600000000000024427740GONZALEZ MAURICIO             000000000849952000000000000000000000000000000000000000000000000000000000000000000000000000000000000000000000000000000000PES00010000001000000000000000020180928
201809290080000400000000000000000030000000000000000000309600000000000033009030ANABELLA PEREZ                000000000785956000000000000000000000000000000000000000000000000000000000000000000000000000000000000000000000000000000000PES00010000001000000000000000020180929
